{
  "contractName": "EducationalRecords",
  "abi": [
    {
      "inputs": [
        {
          "internalType": "address",
          "name": "",
          "type": "address"
        },
        {
          "internalType": "uint256",
          "name": "",
          "type": "uint256"
        }
      ],
      "name": "records",
      "outputs": [
        {
          "internalType": "string",
          "name": "studentName",
          "type": "string"
        },
        {
          "internalType": "string",
          "name": "institutionName",
          "type": "string"
        },
        {
          "internalType": "string",
          "name": "courseName",
          "type": "string"
        },
        {
          "internalType": "string",
          "name": "grade",
          "type": "string"
        },
        {
          "internalType": "uint256",
          "name": "date",
          "type": "uint256"
        }
      ],
      "stateMutability": "view",
      "type": "function",
      "constant": true
    },
    {
      "inputs": [
        {
          "internalType": "string",
          "name": "_studentName",
          "type": "string"
        },
        {
          "internalType": "string",
          "name": "_institutionName",
          "type": "string"
        },
        {
          "internalType": "string",
          "name": "_courseName",
          "type": "string"
        },
        {
          "internalType": "string",
          "name": "_grade",
          "type": "string"
        }
      ],
      "name": "addRecord",
      "outputs": [],
      "stateMutability": "nonpayable",
      "type": "function"
    },
    {
      "inputs": [
        {
          "internalType": "address",
          "name": "_student",
          "type": "address"
        }
      ],
      "name": "getRecords",
      "outputs": [
        {
          "components": [
            {
              "internalType": "string",
              "name": "studentName",
              "type": "string"
            },
            {
              "internalType": "string",
              "name": "institutionName",
              "type": "string"
            },
            {
              "internalType": "string",
              "name": "courseName",
              "type": "string"
            },
            {
              "internalType": "string",
              "name": "grade",
              "type": "string"
            },
            {
              "internalType": "uint256",
              "name": "date",
              "type": "uint256"
            }
          ],
          "internalType": "struct EducationalRecords.Record[]",
          "name": "",
          "type": "tuple[]"
        }
      ],
      "stateMutability": "view",
      "type": "function",
      "constant": true
    }
  ],
  "bytecode": "0x608060405234801561001057600080fd5b50610e18806100206000396000f3fe608060405234801561001057600080fd5b50600436106100415760003560e01c806382a6c0ac1461004657806397fd28b31461007a578063a0076e8414610096575b600080fd5b610060600480360381019061005b919061089a565b6100c6565b604051610071959493929190610b5f565b60405180910390f35b610094600480360381019061008f91906108d6565b610339565b005b6100b060048036038101906100ab9190610871565b61044d565b6040516100bd9190610b3d565b60405180910390f35b600060205281600052604060002081815481106100e257600080fd5b90600052602060002090600502016000915091505080600001805461010690610d13565b80601f016020809104026020016040519081016040528092919081815260200182805461013290610d13565b801561017f5780601f106101545761010080835404028352916020019161017f565b820191906000526020600020905b81548152906001019060200180831161016257829003601f168201915b50505050509080600101805461019490610d13565b80601f01602080910402602001604051908101604052809291908181526020018280546101c090610d13565b801561020d5780601f106101e25761010080835404028352916020019161020d565b820191906000526020600020905b8154815290600101906020018083116101f057829003601f168201915b50505050509080600201805461022290610d13565b80601f016020809104026020016040519081016040528092919081815260200182805461024e90610d13565b801561029b5780601f106102705761010080835404028352916020019161029b565b820191906000526020600020905b81548152906001019060200180831161027e57829003601f168201915b5050505050908060030180546102b090610d13565b80601f01602080910402602001604051908101604052809291908181526020018280546102dc90610d13565b80156103295780601f106102fe57610100808354040283529160200191610329565b820191906000526020600020905b81548152906001019060200180831161030c57829003601f168201915b5050505050908060040154905085565b6000803373ffffffffffffffffffffffffffffffffffffffff1673ffffffffffffffffffffffffffffffffffffffff1681526020019081526020016000206040518060a0016040528086815260200185815260200184815260200183815260200142815250908060018154018082558091505060019003906000526020600020906005020160009091909190915060008201518160000190805190602001906103e392919061073c565b50602082015181600101908051906020019061040092919061073c565b50604082015181600201908051906020019061041d92919061073c565b50606082015181600301908051906020019061043a92919061073c565b5060808201518160040155505050505050565b60606000808373ffffffffffffffffffffffffffffffffffffffff1673ffffffffffffffffffffffffffffffffffffffff168152602001908152602001600020805480602002602001604051908101604052809291908181526020016000905b8282101561073157838290600052602060002090600502016040518060a00160405290816000820180546104e090610d13565b80601f016020809104026020016040519081016040528092919081815260200182805461050c90610d13565b80156105595780601f1061052e57610100808354040283529160200191610559565b820191906000526020600020905b81548152906001019060200180831161053c57829003601f168201915b5050505050815260200160018201805461057290610d13565b80601f016020809104026020016040519081016040528092919081815260200182805461059e90610d13565b80156105eb5780601f106105c0576101008083540402835291602001916105eb565b820191906000526020600020905b8154815290600101906020018083116105ce57829003601f168201915b5050505050815260200160028201805461060490610d13565b80601f016020809104026020016040519081016040528092919081815260200182805461063090610d13565b801561067d5780601f106106525761010080835404028352916020019161067d565b820191906000526020600020905b81548152906001019060200180831161066057829003601f168201915b5050505050815260200160038201805461069690610d13565b80601f01602080910402602001604051908101604052809291908181526020018280546106c290610d13565b801561070f5780601f106106e45761010080835404028352916020019161070f565b820191906000526020600020905b8154815290600101906020018083116106f257829003601f168201915b50505050508152602001600482015481525050815260200190600101906104ad565b505050509050919050565b82805461074890610d13565b90600052602060002090601f01602090048101928261076a57600085556107b1565b82601f1061078357805160ff19168380011785556107b1565b828001600101855582156107b1579182015b828111156107b0578251825591602001919060010190610795565b5b5090506107be91906107c2565b5090565b5b808211156107db5760008160009055506001016107c3565b5090565b60006107f26107ed84610bff565b610bce565b90508281526020810184848401111561080a57600080fd5b610815848285610cd1565b509392505050565b60008135905061082c81610db4565b92915050565b600082601f83011261084357600080fd5b81356108538482602086016107df565b91505092915050565b60008135905061086b81610dcb565b92915050565b60006020828403121561088357600080fd5b60006108918482850161081d565b91505092915050565b600080604083850312156108ad57600080fd5b60006108bb8582860161081d565b92505060206108cc8582860161085c565b9150509250929050565b600080600080608085870312156108ec57600080fd5b600085013567ffffffffffffffff81111561090657600080fd5b61091287828801610832565b945050602085013567ffffffffffffffff81111561092f57600080fd5b61093b87828801610832565b935050604085013567ffffffffffffffff81111561095857600080fd5b61096487828801610832565b925050606085013567ffffffffffffffff81111561098157600080fd5b61098d87828801610832565b91505092959194509250565b60006109a58383610a94565b905092915050565b60006109b882610c3f565b6109c28185610c62565b9350836020820285016109d485610c2f565b8060005b85811015610a1057848403895281516109f18582610999565b94506109fc83610c55565b925060208a019950506001810190506109d8565b50829750879550505050505092915050565b6000610a2d82610c4a565b610a378185610c73565b9350610a47818560208601610ce0565b610a5081610da3565b840191505092915050565b6000610a6682610c4a565b610a708185610c84565b9350610a80818560208601610ce0565b610a8981610da3565b840191505092915050565b600060a0830160008301518482036000860152610ab18282610a22565b91505060208301518482036020860152610acb8282610a22565b91505060408301518482036040860152610ae58282610a22565b91505060608301518482036060860152610aff8282610a22565b9150506080830151610b146080860182610b1f565b508091505092915050565b610b2881610cc7565b82525050565b610b3781610cc7565b82525050565b60006020820190508181036000830152610b5781846109ad565b905092915050565b600060a0820190508181036000830152610b798188610a5b565b90508181036020830152610b8d8187610a5b565b90508181036040830152610ba18186610a5b565b90508181036060830152610bb58185610a5b565b9050610bc46080830184610b2e565b9695505050505050565b6000604051905081810181811067ffffffffffffffff82111715610bf557610bf4610d74565b5b8060405250919050565b600067ffffffffffffffff821115610c1a57610c19610d74565b5b601f19601f8301169050602081019050919050565b6000819050602082019050919050565b600081519050919050565b600081519050919050565b6000602082019050919050565b600082825260208201905092915050565b600082825260208201905092915050565b600082825260208201905092915050565b6000610ca082610ca7565b9050919050565b600073ffffffffffffffffffffffffffffffffffffffff82169050919050565b6000819050919050565b82818337600083830152505050565b60005b83811015610cfe578082015181840152602081019050610ce3565b83811115610d0d576000848401525b50505050565b60006002820490506001821680610d2b57607f821691505b60208210811415610d3f57610d3e610d45565b5b50919050565b7f4e487b7100000000000000000000000000000000000000000000000000000000600052602260045260246000fd5b7f4e487b7100000000000000000000000000000000000000000000000000000000600052604160045260246000fd5b6000601f19601f8301169050919050565b610dbd81610c95565b8114610dc857600080fd5b50565b610dd481610cc7565b8114610ddf57600080fd5b5056fea264697066735822122028f81c2daffc0ed3e9f0ad34282c129a251f98d65aa1cfdca02954b4da6e62bd64736f6c63430008000033",
  "immutableReferences": {},
  "source": "// contracts/EducationalRecords.sol\r\npragma solidity ^0.8.0;\r\n\r\ncontract EducationalRecords {\r\n    struct Record {\r\n        string studentName;\r\n        string institutionName;\r\n        string courseName;\r\n        string grade;\r\n        uint date;\r\n    }\r\n\r\n    mapping(address => Record[]) public records;\r\n\r\n    function addRecord(string memory _studentName, string memory _institutionName, string memory _courseName, string memory _grade) public {\r\n        records[msg.sender].push(Record({\r\n            studentName: _studentName,\r\n            institutionName: _institutionName,\r\n            courseName: _courseName,\r\n            grade: _grade,\r\n            date: block.timestamp\r\n        }));\r\n    }\r\n\r\n    function getRecords(address _student) public view returns (Record[] memory) {\r\n        return records[_student];\r\n    }\r\n}\r\n",
  "sourcePath": "C:\\Users\\USER\\Desktop\\BDA\\Blockchain-Education-Records\\contracts\\EducationalRecords.sol",
  "compiler": {
    "name": "solc",
    "version": "0.8.0+commit.c7dfd78e.Emscripten.clang"
  },
  "schemaVersion": "3.4.16",
  "updatedAt": "2024-05-23T09:04:05.348Z",
  "networkType": "ethereum",
  "devdoc": {
    "kind": "dev",
    "methods": {},
    "version": 1
  },
  "userdoc": {
    "kind": "user",
    "methods": {},
    "version": 1
  }
}